{
  "_format": "hh-sol-artifact-1",
  "contractName": "Vesting",
  "sourceName": "contracts/Vesting.sol",
  "abi": [
    {
      "inputs": [
        {
          "internalType": "address",
          "name": "tokenAddress",
          "type": "address"
        }
      ],
      "stateMutability": "nonpayable",
      "type": "constructor"
    },
    {
      "anonymous": false,
      "inputs": [
        {
          "indexed": false,
          "internalType": "address",
          "name": "account",
          "type": "address"
        },
        {
          "indexed": false,
          "internalType": "uint256",
          "name": "amount",
          "type": "uint256"
        }
      ],
      "name": "AllocationReleased",
      "type": "event"
    },
    {
      "anonymous": false,
      "inputs": [
        {
          "indexed": true,
          "internalType": "address",
          "name": "previousOwner",
          "type": "address"
        },
        {
          "indexed": true,
          "internalType": "address",
          "name": "newOwner",
          "type": "address"
        }
      ],
      "name": "OwnershipTransferred",
      "type": "event"
    },
    {
      "anonymous": false,
      "inputs": [
        {
          "indexed": false,
          "internalType": "address",
          "name": "beneficiary",
          "type": "address"
        },
        {
          "indexed": false,
          "internalType": "uint256",
          "name": "numberOfCliffMonths",
          "type": "uint256"
        },
        {
          "indexed": false,
          "internalType": "uint256",
          "name": "numberOfVestingMonths",
          "type": "uint256"
        },
        {
          "indexed": false,
          "internalType": "uint256",
          "name": "unlockRate",
          "type": "uint256"
        },
        {
          "indexed": false,
          "internalType": "bool",
          "name": "isRevocable",
          "type": "bool"
        },
        {
          "indexed": false,
          "internalType": "uint256",
          "name": "allocation",
          "type": "uint256"
        }
      ],
      "name": "VestingScheduleAdded",
      "type": "event"
    },
    {
      "anonymous": false,
      "inputs": [
        {
          "indexed": false,
          "internalType": "address",
          "name": "account",
          "type": "address"
        }
      ],
      "name": "VestingScheduleRevoked",
      "type": "event"
    },
    {
      "inputs": [
        {
          "internalType": "address",
          "name": "_beneficiary",
          "type": "address"
        },
        {
          "internalType": "uint256",
          "name": "_numberOfCliffMonths",
          "type": "uint256"
        },
        {
          "internalType": "uint256",
          "name": "_numberOfVestingMonths",
          "type": "uint256"
        },
        {
          "internalType": "uint8",
          "name": "_unlockRate",
          "type": "uint8"
        },
        {
          "internalType": "bool",
          "name": "_isRevocable",
          "type": "bool"
        },
        {
          "internalType": "uint256",
          "name": "_allocation",
          "type": "uint256"
        }
      ],
      "name": "createVestingSchedule",
      "outputs": [],
      "stateMutability": "nonpayable",
      "type": "function"
    },
    {
      "inputs": [],
      "name": "owner",
      "outputs": [
        {
          "internalType": "address",
          "name": "",
          "type": "address"
        }
      ],
      "stateMutability": "view",
      "type": "function"
    },
    {
      "inputs": [
        {
          "internalType": "address",
          "name": "_beneficiary",
          "type": "address"
        }
      ],
      "name": "release",
      "outputs": [],
      "stateMutability": "nonpayable",
      "type": "function"
    },
    {
      "inputs": [],
      "name": "renounceOwnership",
      "outputs": [],
      "stateMutability": "nonpayable",
      "type": "function"
    },
    {
      "inputs": [
        {
          "internalType": "address",
          "name": "_beneficiary",
          "type": "address"
        }
      ],
      "name": "revoke",
      "outputs": [],
      "stateMutability": "nonpayable",
      "type": "function"
    },
    {
      "inputs": [
        {
          "internalType": "address",
          "name": "newOwner",
          "type": "address"
        }
      ],
      "name": "transferOwnership",
      "outputs": [],
      "stateMutability": "nonpayable",
      "type": "function"
    }
  ],
  "bytecode": "0x60a06040523480156200001157600080fd5b506040516200235838038062002358833981810160405281019062000037919062000213565b620000576200004b620000dd60201b60201c565b620000e560201b60201c565b600073ffffffffffffffffffffffffffffffffffffffff168173ffffffffffffffffffffffffffffffffffffffff1614156200009257600080fd5b8073ffffffffffffffffffffffffffffffffffffffff1660808173ffffffffffffffffffffffffffffffffffffffff1681525050600060018190555060006002819055505062000245565b600033905090565b60008060009054906101000a900473ffffffffffffffffffffffffffffffffffffffff169050816000806101000a81548173ffffffffffffffffffffffffffffffffffffffff021916908373ffffffffffffffffffffffffffffffffffffffff1602179055508173ffffffffffffffffffffffffffffffffffffffff168173ffffffffffffffffffffffffffffffffffffffff167f8be0079c531659141344cd1fd0a4f28419497f9722a3daafe3b4186f6b6457e060405160405180910390a35050565b600080fd5b600073ffffffffffffffffffffffffffffffffffffffff82169050919050565b6000620001db82620001ae565b9050919050565b620001ed81620001ce565b8114620001f957600080fd5b50565b6000815190506200020d81620001e2565b92915050565b6000602082840312156200022c576200022b620001a9565b5b60006200023c84828501620001fc565b91505092915050565b6080516120f06200026860003960008181610406015261083901526120f06000f3fe608060405234801561001057600080fd5b50600436106100625760003560e01c80631916558714610067578063715018a61461008357806374a8f1031461008d5780638da5cb5b146100a9578063cb062bb6146100c7578063f2fde38b146100e3575b600080fd5b610081600480360381019061007c919061121c565b6100ff565b005b61008b61048a565b005b6100a760048036038101906100a2919061121c565b61049e565b005b6100b1610735565b6040516100be9190611258565b60405180910390f35b6100e160048036038101906100dc919061131a565b61075e565b005b6100fd60048036038101906100f8919061121c565b610be9565b005b808073ffffffffffffffffffffffffffffffffffffffff163373ffffffffffffffffffffffffffffffffffffffff16148061016c575061013d610735565b73ffffffffffffffffffffffffffffffffffffffff163373ffffffffffffffffffffffffffffffffffffffff16145b6101ab576040517f08c379a00000000000000000000000000000000000000000000000000000000081526004016101a290611450565b60405180910390fd5b600360008373ffffffffffffffffffffffffffffffffffffffff1673ffffffffffffffffffffffffffffffffffffffff16815260200190815260200160002060050160019054906101000a900460ff161561023b576040517f08c379a0000000000000000000000000000000000000000000000000000000008152600401610232906114e2565b60405180910390fd5b6000600360008473ffffffffffffffffffffffffffffffffffffffff1673ffffffffffffffffffffffffffffffffffffffff1681526020019081526020016000209050600061037882604051806101400160405290816000820160009054906101000a900473ffffffffffffffffffffffffffffffffffffffff1673ffffffffffffffffffffffffffffffffffffffff1673ffffffffffffffffffffffffffffffffffffffff168152602001600182015481526020016002820154815260200160038201548152602001600482015481526020016005820160009054906101000a900460ff161515151581526020016005820160019054906101000a900460ff16151515158152602001600682015481526020016007820160009054906101000a900460ff16151515158152602001600882015481525050610c6d565b9050600081116103bd576040517f08c379a00000000000000000000000000000000000000000000000000000000081526004016103b490611574565b60405180910390fd5b60008260000160009054906101000a900473ffffffffffffffffffffffffffffffffffffffff16905081600260008282546103f891906115c3565b9250508190555061044a81837f000000000000000000000000000000000000000000000000000000000000000073ffffffffffffffffffffffffffffffffffffffff16610d469092919063ffffffff16565b7feef6bf169a7877bc0ec5cecf9e9743d3f436c118b91becfb50502fbbc07a1bbb858360405161047b929190611628565b60405180910390a15050505050565b610492610dcc565b61049c6000610e4a565b565b6104a6610dcc565b600073ffffffffffffffffffffffffffffffffffffffff16600360008373ffffffffffffffffffffffffffffffffffffffff1673ffffffffffffffffffffffffffffffffffffffff16815260200190815260200160002060000160009054906101000a900473ffffffffffffffffffffffffffffffffffffffff1673ffffffffffffffffffffffffffffffffffffffff161415610578576040517f08c379a000000000000000000000000000000000000000000000000000000000815260040161056f906116c3565b60405180910390fd5b600360008273ffffffffffffffffffffffffffffffffffffffff1673ffffffffffffffffffffffffffffffffffffffff16815260200190815260200160002060050160009054906101000a900460ff16610607576040517f08c379a00000000000000000000000000000000000000000000000000000000081526004016105fe90611755565b60405180910390fd5b600360008273ffffffffffffffffffffffffffffffffffffffff1673ffffffffffffffffffffffffffffffffffffffff16815260200190815260200160002060050160019054906101000a900460ff1615610697576040517f08c379a000000000000000000000000000000000000000000000000000000000815260040161068e906117e7565b60405180910390fd5b6106a0816100ff565b6001600360008373ffffffffffffffffffffffffffffffffffffffff1673ffffffffffffffffffffffffffffffffffffffff16815260200190815260200160002060050160016101000a81548160ff0219169083151502179055507f24c365587e18582fa18518c21238fb2527b5bff9bf132889dd780503b46d05878160405161072a9190611258565b60405180910390a150565b60008060009054906101000a900473ffffffffffffffffffffffffffffffffffffffff16905090565b610766610dcc565b600073ffffffffffffffffffffffffffffffffffffffff16600360008873ffffffffffffffffffffffffffffffffffffffff1673ffffffffffffffffffffffffffffffffffffffff16815260200190815260200160002060000160009054906101000a900473ffffffffffffffffffffffffffffffffffffffff1673ffffffffffffffffffffffffffffffffffffffff1614610837576040517f08c379a000000000000000000000000000000000000000000000000000000000815260040161082e90611879565b60405180910390fd5b7f000000000000000000000000000000000000000000000000000000000000000073ffffffffffffffffffffffffffffffffffffffff166370a08231306040518263ffffffff1660e01b81526004016108909190611258565b60206040518083038186803b1580156108a857600080fd5b505afa1580156108bc573d6000803e3d6000fd5b505050506040513d601f19601f820116820180604052508101906108e091906118ae565b816001546108ee91906115c3565b111561092f576040517f08c379a000000000000000000000000000000000000000000000000000000000815260040161092690611973565b60405180910390fd5b60008511610972576040517f08c379a000000000000000000000000000000000000000000000000000000000815260040161096990611a05565b60405180910390fd5b600084116109b5576040517f08c379a00000000000000000000000000000000000000000000000000000000081526004016109ac90611a97565b60405180910390fd5b600081116109f8576040517f08c379a00000000000000000000000000000000000000000000000000000000081526004016109ef90611b29565b60405180910390fd5b6040518061014001604052808773ffffffffffffffffffffffffffffffffffffffff1681526020014281526020018681526020018581526020018460ff16815260200183151581526020016000151581526020018281526020016000151581526020016000815250600360008873ffffffffffffffffffffffffffffffffffffffff1673ffffffffffffffffffffffffffffffffffffffff16815260200190815260200160002060008201518160000160006101000a81548173ffffffffffffffffffffffffffffffffffffffff021916908373ffffffffffffffffffffffffffffffffffffffff1602179055506020820151816001015560408201518160020155606082015181600301556080820151816004015560a08201518160050160006101000a81548160ff02191690831515021790555060c08201518160050160016101000a81548160ff02191690831515021790555060e082015181600601556101008201518160070160006101000a81548160ff02191690831515021790555061012082015181600801559050508060016000828254610b9991906115c3565b925050819055507f8e52a04377543b0c427796a12847eb0f692d4c35fbc80a4e96f92077872bd899868686868686604051610bd996959493929190611b93565b60405180910390a1505050505050565b610bf1610dcc565b600073ffffffffffffffffffffffffffffffffffffffff168173ffffffffffffffffffffffffffffffffffffffff161415610c61576040517f08c379a0000000000000000000000000000000000000000000000000000000008152600401610c5890611c66565b60405180910390fd5b610c6a81610e4a565b50565b6000804290506000808460400151856101200151610c8b8786610f0e565b610c959190611c86565b610c9f9190611c86565b9050846101000151610ceb5760648560e001518660800151610cc19190611cba565b610ccb9190611d43565b82610cd691906115c3565b91506001856101000190151590811515815250505b6000811115610d3b57808561012001818151610d0791906115c3565b915081815250508085606001518660e00151610d239190611d43565b610d2d9190611cba565b82610d3891906115c3565b91505b819350505050919050565b610dc78363a9059cbb60e01b8484604051602401610d65929190611628565b604051602081830303815290604052907bffffffffffffffffffffffffffffffffffffffffffffffffffffffff19166020820180517bffffffffffffffffffffffffffffffffffffffffffffffffffffffff8381831617835250505050610f34565b505050565b610dd4610ffb565b73ffffffffffffffffffffffffffffffffffffffff16610df2610735565b73ffffffffffffffffffffffffffffffffffffffff1614610e48576040517f08c379a0000000000000000000000000000000000000000000000000000000008152600401610e3f90611dc0565b60405180910390fd5b565b60008060009054906101000a900473ffffffffffffffffffffffffffffffffffffffff169050816000806101000a81548173ffffffffffffffffffffffffffffffffffffffff021916908373ffffffffffffffffffffffffffffffffffffffff1602179055508173ffffffffffffffffffffffffffffffffffffffff168173ffffffffffffffffffffffffffffffffffffffff167f8be0079c531659141344cd1fd0a4f28419497f9722a3daafe3b4186f6b6457e060405160405180910390a35050565b6000601e836020015183610f229190611c86565b610f2c9190611d43565b905092915050565b6000610f96826040518060400160405280602081526020017f5361666545524332303a206c6f772d6c6576656c2063616c6c206661696c65648152508573ffffffffffffffffffffffffffffffffffffffff166110039092919063ffffffff16565b9050600081511115610ff65780806020019051810190610fb69190611df5565b610ff5576040517f08c379a0000000000000000000000000000000000000000000000000000000008152600401610fec90611e94565b60405180910390fd5b5b505050565b600033905090565b6060611012848460008561101b565b90509392505050565b606082471015611060576040517f08c379a000000000000000000000000000000000000000000000000000000000815260040161105790611f26565b60405180910390fd5b6110698561112f565b6110a8576040517f08c379a000000000000000000000000000000000000000000000000000000000815260040161109f90611f92565b60405180910390fd5b6000808673ffffffffffffffffffffffffffffffffffffffff1685876040516110d1919061202c565b60006040518083038185875af1925050503d806000811461110e576040519150601f19603f3d011682016040523d82523d6000602084013e611113565b606091505b5091509150611123828286611152565b92505050949350505050565b6000808273ffffffffffffffffffffffffffffffffffffffff163b119050919050565b60608315611162578290506111b2565b6000835111156111755782518084602001fd5b816040517f08c379a00000000000000000000000000000000000000000000000000000000081526004016111a99190612098565b60405180910390fd5b9392505050565b600080fd5b600073ffffffffffffffffffffffffffffffffffffffff82169050919050565b60006111e9826111be565b9050919050565b6111f9816111de565b811461120457600080fd5b50565b600081359050611216816111f0565b92915050565b600060208284031215611232576112316111b9565b5b600061124084828501611207565b91505092915050565b611252816111de565b82525050565b600060208201905061126d6000830184611249565b92915050565b6000819050919050565b61128681611273565b811461129157600080fd5b50565b6000813590506112a38161127d565b92915050565b600060ff82169050919050565b6112bf816112a9565b81146112ca57600080fd5b50565b6000813590506112dc816112b6565b92915050565b60008115159050919050565b6112f7816112e2565b811461130257600080fd5b50565b600081359050611314816112ee565b92915050565b60008060008060008060c08789031215611337576113366111b9565b5b600061134589828a01611207565b965050602061135689828a01611294565b955050604061136789828a01611294565b945050606061137889828a016112cd565b935050608061138989828a01611305565b92505060a061139a89828a01611294565b9150509295509295509295565b600082825260208201905092915050565b7f4552524f522061742072656c656173653a204f6e6c792062656e65666963696160008201527f727920616e64206f776e65722063616e2072656c65617365207665737465642060208201527f746f6b656e732e00000000000000000000000000000000000000000000000000604082015250565b600061143a6047836113a7565b9150611445826113b8565b606082019050919050565b600060208201905081810360008301526114698161142d565b9050919050565b7f4552524f522061742072656c656173653a2056657374696e672053636865647560008201527f6c65206973207265766f6b65642e000000000000000000000000000000000000602082015250565b60006114cc602e836113a7565b91506114d782611470565b604082019050919050565b600060208201905081810360008301526114fb816114bf565b9050919050565b7f4552524f522061742072656c656173653a2052656c65617361626c6520616d6f60008201527f756e742069732030207761697420666f722076657374696e672e000000000000602082015250565b600061155e603a836113a7565b915061156982611502565b604082019050919050565b6000602082019050818103600083015261158d81611551565b9050919050565b7f4e487b7100000000000000000000000000000000000000000000000000000000600052601160045260246000fd5b60006115ce82611273565b91506115d983611273565b9250827fffffffffffffffffffffffffffffffffffffffffffffffffffffffffffffffff0382111561160e5761160d611594565b5b828201905092915050565b61162281611273565b82525050565b600060408201905061163d6000830185611249565b61164a6020830184611619565b9392505050565b7f4552524f523a2056657374696e67205363686564756c6520616c72656164792060008201527f6578697374730000000000000000000000000000000000000000000000000000602082015250565b60006116ad6026836113a7565b91506116b882611651565b604082019050919050565b600060208201905081810360008301526116dc816116a0565b9050919050565b7f4552524f52206174207265766f6b653a20546172676574207363686564756c6560008201527f206973206e6f74207265766f6b61626c652e0000000000000000000000000000602082015250565b600061173f6032836113a7565b915061174a826116e3565b604082019050919050565b6000602082019050818103600083015261176e81611732565b9050919050565b7f4552524f52206174207265766f6b65643a2056657374696e672053636865647560008201527f6c6520697320616c7265616479207265766f6b65642e00000000000000000000602082015250565b60006117d16036836113a7565b91506117dc82611775565b604082019050919050565b60006020820190508181036000830152611800816117c4565b9050919050565b7f4552524f52202863726561746556657374696e675363686564756c65293a205360008201527f63686564756c6520616c72656164792065786973742e00000000000000000000602082015250565b60006118636036836113a7565b915061186e82611807565b604082019050919050565b6000602082019050818103600083015261189281611856565b9050919050565b6000815190506118a88161127d565b92915050565b6000602082840312156118c4576118c36111b9565b5b60006118d284828501611899565b91505092915050565b7f4552524f522061742063726561746556657374696e675363686564756c653a2060008201527f43616e6e6f74206372656174652076657374696e67207363686564756c65206260208201527f656361757365206e6f742073756666696369656e7420746f6b656e7300000000604082015250565b600061195d605c836113a7565b9150611968826118db565b606082019050919050565b6000602082019050818103600083015261198c81611950565b9050919050565b7f4552524f522061742063726561746556657374696e675363686564756c653a2060008201527f436c6966662063616e6e6f742062652030206d6f6e7468000000000000000000602082015250565b60006119ef6037836113a7565b91506119fa82611993565b604082019050919050565b60006020820190508181036000830152611a1e816119e2565b9050919050565b7f4552524f522061742063726561746556657374696e675363686564756c653a2060008201527f56657374696e672063616e6e6f742062652030206d6f6e746800000000000000602082015250565b6000611a816039836113a7565b9150611a8c82611a25565b604082019050919050565b60006020820190508181036000830152611ab081611a74565b9050919050565b7f4552524f522061742063726561746556657374696e675363686564756c653a2060008201527f416c6c6f636174696f6e206d757374206265203e203000000000000000000000602082015250565b6000611b136036836113a7565b9150611b1e82611ab7565b604082019050919050565b60006020820190508181036000830152611b4281611b06565b9050919050565b6000819050919050565b6000611b6e611b69611b64846112a9565b611b49565b611273565b9050919050565b611b7e81611b53565b82525050565b611b8d816112e2565b82525050565b600060c082019050611ba86000830189611249565b611bb56020830188611619565b611bc26040830187611619565b611bcf6060830186611b75565b611bdc6080830185611b84565b611be960a0830184611619565b979650505050505050565b7f4f776e61626c653a206e6577206f776e657220697320746865207a65726f206160008201527f6464726573730000000000000000000000000000000000000000000000000000602082015250565b6000611c506026836113a7565b9150611c5b82611bf4565b604082019050919050565b60006020820190508181036000830152611c7f81611c43565b9050919050565b6000611c9182611273565b9150611c9c83611273565b925082821015611caf57611cae611594565b5b828203905092915050565b6000611cc582611273565b9150611cd083611273565b9250817fffffffffffffffffffffffffffffffffffffffffffffffffffffffffffffffff0483118215151615611d0957611d08611594565b5b828202905092915050565b7f4e487b7100000000000000000000000000000000000000000000000000000000600052601260045260246000fd5b6000611d4e82611273565b9150611d5983611273565b925082611d6957611d68611d14565b5b828204905092915050565b7f4f776e61626c653a2063616c6c6572206973206e6f7420746865206f776e6572600082015250565b6000611daa6020836113a7565b9150611db582611d74565b602082019050919050565b60006020820190508181036000830152611dd981611d9d565b9050919050565b600081519050611def816112ee565b92915050565b600060208284031215611e0b57611e0a6111b9565b5b6000611e1984828501611de0565b91505092915050565b7f5361666545524332303a204552433230206f7065726174696f6e20646964206e60008201527f6f74207375636365656400000000000000000000000000000000000000000000602082015250565b6000611e7e602a836113a7565b9150611e8982611e22565b604082019050919050565b60006020820190508181036000830152611ead81611e71565b9050919050565b7f416464726573733a20696e73756666696369656e742062616c616e636520666f60008201527f722063616c6c0000000000000000000000000000000000000000000000000000602082015250565b6000611f106026836113a7565b9150611f1b82611eb4565b604082019050919050565b60006020820190508181036000830152611f3f81611f03565b9050919050565b7f416464726573733a2063616c6c20746f206e6f6e2d636f6e7472616374000000600082015250565b6000611f7c601d836113a7565b9150611f8782611f46565b602082019050919050565b60006020820190508181036000830152611fab81611f6f565b9050919050565b600081519050919050565b600081905092915050565b60005b83811015611fe6578082015181840152602081019050611fcb565b83811115611ff5576000848401525b50505050565b600061200682611fb2565b6120108185611fbd565b9350612020818560208601611fc8565b80840191505092915050565b60006120388284611ffb565b915081905092915050565b600081519050919050565b6000601f19601f8301169050919050565b600061206a82612043565b61207481856113a7565b9350612084818560208601611fc8565b61208d8161204e565b840191505092915050565b600060208201905081810360008301526120b2818461205f565b90509291505056fea2646970667358221220ca62ec52ae99119158b469a537882de21d6bd4dfb6b73a7e63e929f5e4f2418964736f6c63430008090033",
  "linkReferences": {},
  "deployedLinkReferences": {}
}